:020000040800F2
:1000000000200020C1000008C7000008C700000849
:1000100000000000000000000000000000000000E0
:10002000000000000000000000000000C700000801
:100030000000000000000000C7000008C700000822
:10004000C7000008C7000008C7000008C700000874
:10005000C7000008C7000008C7000008C700000864
:10006000C7000008C7000008C7000008C700000854
:10007000C7000008C7000008C7000008C700000844
:10008000C7000008C7000008C7000008C700000834
:10009000C7000008C7000008C7000008C700000824
:1000A000C7000008C7000008C7000008C700000814
:1000B000C7000008C7000008C7000008C700000804
:1000C00000F0ECFBFEE7FEE780B500AF0121132056
:1000D00000F07EFB0C4B00220821180000F0EAFA29
:1000E000094B00220921180000F0E4FA0121012047
:1000F00000F090FB054A064B6421180000F020FC3C
:10010000C046BD4680BDC046000800481F03000031
:100110000004004080B500AF01210C2000F09CFBE2
:100120000121112000F054FB9023DB050022052162
:10013000180000F0BFFA9023DB050022062118000A
:1001400000F0B8FA9023DB0500220721180000F028
:10015000B1FA9023DB059022D20512688021C900F4
:100160000A431A609023DB059022D2051268802191
:10017000C9010A431A609023DB059022D205126858
:10018000802149000A431A609023DB059022D205A2
:10019000526910210A435A61054B180000F0D4FA45
:1001A000034B180000F0BAFCC046BD4680BDC046F7
:1001B0000030014080B582B002AF0121112000F073
:1001C00007FB9023D805062300930723052204216B
:1001D00000F0C8FD002000F0A1FCC046BD4680BD77
:1001E00080B500AF0121112000F0F2FA9023DB0569
:1001F00002220A21180000F05DFA9023DB0502229A
:100200000921180000F056FA9023DB05022208218C
:10021000180000F04FFA01210B2000F01DFB044AEA
:10022000044B6421180000F0CDFBC046BD4680BDE4
:100230001F030000002C014080B500AF01211120F8
:1002400000F0C6FA9023DB0501220221180000F01D
:1002500031FA9023DB0501220321180000F02AFA6D
:100260000121112000F0D6FA96239B01180000F01E
:1002700041FEC046BD4680BD80B500AF01211120C2
:1002800000F0A6FA9023DB059022D2051268032124
:100290000A431A600121092000F0DEFA00F086FE10
:1002A000C046BD4680BDC04680B584B000AF786012
:1002B00039600023FB6006E0FB680133FB607A686D
:1002C0003B68D31A7B607A683B689A42F4DAFB6831
:1002D0001800BD4604B080BD80B582B000AF786024
:1002E00039607A683B689A4205DA7B6808E07A6888
:1002F0003B68D31A7B607A683B689A42F7DA7B687E
:100300001800BD4602B080BD90B585B000AF7860E2
:1003100039600023FB6014E0FB683A68D4187B68FE
:100320000A211800FFF7D8FF0300DBB223707B68B7
:100330000A211800FFF7B8FF03007B60FB68013358
:10034000FB60FB68072BE7DDC046BD4605B090BDEE
:1003500080B584B000AF786000F0B8FC0023FB608B
:100360000CE0FB687A68D3181B78FA68D2B21100E7
:10037000180000F007FCFB680133FB60FB68072BEB
:10038000EFDDC046BD4604B080BDC04680B584B038
:1003900000AF0121132000F01BFA804B012208213D
:1003A000180000F01BF9FFF71BFFFFF78DFE7C4BD9
:1003B0007B4AD26902210A43DA61FFF75DFFFFF74A
:1003C000F9FEFFF739FF00237B600023BB600023A9
:1003D000FB60724B01220821180000F025F964200F
:1003E00000F066FB6D4B00220821180000F01CF99C
:1003F000642000F05DFB00F001FE0300FB60694A31
:10040000FB6811001800FFF77FFF664B1800FFF72D
:100410009FFF732000F088FD7B68DBB23033DBB2D6
:10042000180000F081FD202000F07EFD7B68052B88
:1004300000D9AAE07B689A005B4BD3181B689F46E3
:100440000023BB6017E0BB6858481A00022100F087
:1004500009FBBB6856481A00022100F003FBBB6889
:1004600053481A00032100F0FDFA0A2000F020FB97
:10047000BB680133BB60BB68642BE4DD89E000230B
:10048000BB600BE0BB6849481A00012100F0EAFAA2
:100490000A2000F00DFBBB680133BB60BB68642B16
:1004A000F0DD76E00023BB600BE0BB683F481A003C
:1004B000002100F0D7FA0A2000F0FAFABB680133F5
:1004C000BB60BB68642BF0DD63E06423BB6023E0AA
:1004D000BB6836481A00022100F0C4FABB683348F2
:1004E0001A00012100F0BEFABB6830481A00002152
:1004F00000F0B8FABB682E481A00022100F0B2FAE8
:10050000BB682B481A00032100F0ACFA0A2000F067
:10051000CFFABB68013BBB60BB68002BD8DA38E080
:100520000023BB6011E0BB6820481A00022100F0E4
:1005300099FABB681D481A00002100F093FA0A20BE
:1005400000F0B6FABB680133BB60BB68642BEADD20
:100550001FE00023BB6014E0BB6814481A000121AF
:1005600000F080FABB686422D31A1A000F4B0021F6
:10057000180000F077FA0A2000F09AFABB680133FD
:10058000BB60BB68642BE7DD03E001235B427B605B
:10059000C0467B6801337B601BE7C046000800480B
:1005A00000100240000000203C100008002C014018
:1005B0000004004080B584B000AFF860B9607A6094
:1005C000FB68DA68BB685B00796899400B001A43E6
:1005D000FB68DA60C046BD4604B080BD80B584B01B
:1005E00000AFF860B9607A60FB68002B18D0BB6878
:1005F0000F2B15D8FB681B68BA6852000321914085
:100600000A00D2431A40FB681A60FB681A68BB688C
:100610005B00796899400B001A43FB681A6000E0A0
:10062000C046BD4604B080BD80B584B000AFF86060
:10063000B9607A60FB68002B1AD0BB680F2B17D803
:100640007B68002B09D0FB685B690121BA68914087
:100650000A001A43FB685A610BE0FB685B690121E1
:10066000BA6891400A00D2431A40FB685A6100E020
:10067000C046BD4604B080BD80B584B000AF786090
:1006800039607B68002B02D03B680F2B01D9002317
:100690000CE00023FB607B681B6901213A689140F4
:1006A0000A00134001D00123FB60FB681800BD461F
:1006B00004B080BD80B586B000AFF860B9607A60E4
:1006C000FB68002B3BD0BB680F2B38D8FB681B683E
:1006D000BA685200032191400A00D2431A40FB68D5
:1006E0001A60FB681B68BA685200022191400A0038
:1006F0001A43FB681A60BB68072B03D8FB682033DA
:100700007B6105E0BB68083BBB60FB6824337B6111
:10071000BB689B00BB607B691B680F21BA68914076
:100720000A00D2431A407B691A607B691A687968AB
:10073000BB6899400B001A437B691A6000E0C04611
:10074000BD4606B080BDC04680B582B000AF7860BF
:100750007B681A6804210A431A607B681A6838218A
:100760008A4308210A431A607B68802292001A603B
:100770007B685A6809490A40E021C9000A435A6067
:100780007B685A6804210A435A607B681A684021D2
:100790000A431A60C046BD4602B080BDFFF0FFFFAD
:1007A00080B582B000AF78600A00FB1C1A70C046AA
:1007B0007B689B689B07DB0FDBB2002BF8D07B6864
:1007C0000C33FA1C12781A70C046BD4602B080BDC8
:1007D00080B582B000AF786039603B68012B09D1E9
:1007E0000B4B0B4A526901207968884001000A438B
:1007F0005A6109E0064B064A52690120796888402F
:100800000100C9430A405A61C046BD4602B080BDDE
:100810000010024080B582B000AF786039603B685C
:10082000012B09D10B4B0B4AD26901207968884012
:1008300001000A43DA6109E0064B064AD269012049
:10084000796888400100C9430A40DA61C046BD4664
:1008500002B080BD0010024080B582B000AF786069
:1008600039603B68012B09D10B4B0B4A926901207F
:100870007968884001000A439A6109E0064B064AFC
:1008800092690120796888400100C9430A409A6151
:10089000C046BD4602B080BD0010024080B500AF2A
:1008A000FFF774FDC046BD4680BDC04680B582B02E
:1008B00000AF786039603B681B041A0C7B685A6291
:1008C000C046BD4602B080BD80B582B000AF786042
:1008D00039607B683A689A62C046BD4602B080BD06
:1008E00080B582B000AF78607B681A6801218A43C6
:1008F0001A60C046BD4602B080BDC04680B582B019
:1009000000AF786039607B681A6810218A431A60EA
:100910007B681A683B681B01134301221A437B68FA
:100920001A60C046BD4602B080BDC04680B582B0E8
:1009300000AF78607B685B6A1800BD4602B080BD7E
:1009400080B584B000AFF860B9607A60FB68002BB6
:100950002FD0BB68194A93422BD87B68174A934221
:1009600027D8FB687A689A62FB68BA68DA62002264
:10097000FB681A64FB68DA63FB6800221A62FB6892
:100980000F4ADA61FB681A6A802149000A431A6239
:10099000FB681A6A802149010A431A62FB681A68D7
:1009A00001210A431A60FB685A6901210A435A610E
:1009B00000E0C046BD4604B080BDC046FFFF000059
:1009C0006868000080B584B000AFF860B9607A60F4
:1009D000FB68002B3ED0BB68204A93423AD87B6824
:1009E0001E4A934236D8FB687A689A62FB68BA68F6
:1009F000DA620023FA68D363FA689363FA68536390
:100A0000FB6800221A62FB68154A9A61FB6868223B
:100A1000DA61FB681A6A01210A431A62FB681A6AE2
:100A200010210A431A62FB681A6A802149000A43AE
:100A30001A62FB685A6C802109020A435A64FB68F7
:100A40001A6801210A431A60FB685A6901210A43A6
:100A50005A6100E0C046BD4604B080BDFFFF000003
:100A60006868000080B586B000AFF860B9607A6051
:100A7000BB68012B09D004D3022B0AD0032B0CD066
:100A80000FE0FB6834337B610BE0FB6838337B613C
:100A900007E0FB683C337B6103E0FB6840337B612C
:100AA000C0467B697A681A60C046BD4606B080BD04
:100AB00080B584B000AF786001211020FFF7CCFE34
:100AC0001DE0154B1800FFF70BFF134B002118001A
:100AD000FFF7ECFE104B00211800FFF7F5FE0E4B60
:100AE00000211800FFF70AFF0B4B1800FFF71EFF4D
:100AF0000300FB60FA68FA235B019A42F4D97B6831
:100B00005A1E7A60002BDCD100211020FFF7A4FED2
:100B1000C046BD4604B080BD0040014080B582B0F3
:100B200000AF78600F2000F095F8072000F0B0F8D3
:100B3000FF2000F0BDF800F0C9F8012000F09AF89D
:100B4000C046BD4602B080BD80B582B000AF020095
:100B5000FB1D1A70BB1D0A1C1A70012000F06AF9F7
:100B6000FB1D1B78180000F081F9BB1D1B781800D5
:100B700000F07CF9002000F05DF9C046BD4602B0EF
:100B800080BDC04680B582B000AF0200FB1D1A7068
:100B9000BB1D0A1C1A70BB1D1B78072B09D8BB1D77
:100BA0001B780133DAB2FB1D1B7819001000FFF728
:100BB000CBFFC046BD4602B080BDC04680B586B002
:100BC00000AF7860396000237B6130E01F4B180074
:100BD000FFF76EFF7B697A68D3181B78203B1C4AAD
:100BE000D35C00211800FFF7CDFF7B69013BFB6060
:100BF00001233B6112E0FB687A68D3181B78203B25
:100C0000134AD35C3A69D2B211001800FFF7BAFF59
:100C1000FB68013BFB603B6901333B61FB68002BD8
:100C200002DB3B69072BE6DD7B6901337B617A6977
:100C30003B689A42CAD3FA239B001800FFF738FF9B
:100C400000F06AF8C046BD4606B080BDEE02000066
:100C50005410000880B582B000AF0200FB1D1A706E
:100C6000FB1D1B7819000A20FFF76EFFC046BD462A
:100C700002B080BD80B582B000AF78607B68DBB227
:100C800019000C20FFF760FFC046BD4602B080BDD2
:100C900080B582B000AF0200FB1D1A70FB1D1B78EF
:100CA00019000B20FFF750FFC046BD4602B080BDC3
:100CB00080B582B000AF78607B68DBB21900092094
:100CC000FFF742FFC046BD4602B080BD80B500AF11
:100CD00000210F20FFF756FF01210F20FFF752FFE1
:100CE00002210F20FFF74EFF03210F20FFF74AFFDD
:100CF00004210F20FFF746FF05210F20FFF742FFD9
:100D000006210F20FFF73EFF07210F20FFF73AFFD4
:100D1000C046BD4680BDC04680B500AF0021002062
:100D2000FFF730FF01210020FFF72CFF02210020F8
:100D3000FFF728FF03210020FFF724FF04210020F4
:100D4000FFF720FF05210020FFF71CFF06210020F0
:100D5000FFF718FF07210020FFF714FFC046BD462C
:100D600080BDC04690B583B000AF78600C00100025
:100D70001900FB1C221C1A70BB1C021C1A707B1C65
:100D80000A1C1A707B68002B45D0254B7A681A60C4
:100D9000244BFA1C12781A70234BBA1C12781A7062
:100DA000224B7A1C12781A70214B1822BA1812782A
:100DB0001A701B4B1868FB1C1B7801221900FFF7E7
:100DC0000DFC174B1868FB1C1B7801221900FFF75C
:100DD0002BFC134B1868BB1C1B7801221900FFF772
:100DE000FDFB0F4B1868BB1C1B7800221900FFF796
:100DF0001BFC0B4B18687B1C1B7801221900FFF7AA
:100E0000EDFB074B1B681822BA1811780022180056
:100E1000FFF7E4FB00E0C046BD4603B090BDC0460E
:100E20000C000020100000200A0000200800002014
:100E30000900002080B582B000AF0200FB1D1A70CF
:100E4000084B1868084B1B78DBB21900FB1D1B7898
:100E50005A425341DBB21A00FFF7E6FBC046BD46DB
:100E600002B080BD0C0000201000002090B585B0BD
:100E700000AF0200FB1D1A700023FB600723FB601C
:100E80002BE0194B1868194B1B78DBB21C00FB1DBB
:100E90001B780121FA6891400A0013401A002100D2
:100EA000FFF7C2FB0120FFF703FE0F4B1868104B42
:100EB0001B78DBB201221900FFF7B6FB0120FFF718
:100EC000F7FD094B18680A4B1B78DBB200221900AA
:100ED000FFF7AAFBFB68013BFB60FB68002BD0DA45
:100EE000C046BD4605B090BD0C00002008000020A3
:100EF0000A00002080B582B000AF7860084B094A34
:100F0000DA60074A136808210B431360044A136828
:100F100001210B431360C046BD4602B080BDC046F0
:100F2000004400404103000080B582B000AF0200E1
:100F3000FB1D1A700C4AFB1D1B78DB05DB0D99B2FB
:100F4000936AC905C90D5B0A5B020B439362C046F5
:100F5000054BDB695B06DB0FDBB2002BF8D1C0462B
:100F6000BD4602B080BDC0460044004080B582B09E
:100F700000AF78607B68002B10D00B4BDB699B06C1
:100F8000DB0FDBB2002B09D0074B5B6ADB05DB0D07
:100F90009BB2DAB27B681A70012300E000231800CC
:100FA000BD4602B080BDC0460044004080B500AFE1
:100FB000114B114A1269802109060A431A610E4B2E
:100FC0001B68DB07DB0FDBB2002B04D00A4A136877
:100FD00001210B431360084A936801210B4393607E
:100FE000C046054B1B68DB07DB0FDBB2002BF8D0DC
:100FF000C046BD4680BDC0460024014080B582B0D9
:1010000000AF00237B600C4B01229A620A4A93686E
:1010100004210B439360C046074B1B685B07DB0F43
:10102000DBB2002BF8D0044B1B6C9BB27B607B685F
:0C1030001800BD4602B080BD0024014045
:10103C00400400087E040008A4040008CA04000848
:10104C002005000852050008000101010101010101
:10105C004E780101010100017E306D79335B5F70C8
:10106C007F7B01010109010101771F4E3D4F475E56
:10107C0037303C010E01157E6701055B073E01010F
:10108C000127014E0178010801771F0D3D4F475E86
:10109C0017103C010E01157E6701055B071C010151
:0310AC0001270118
:0400000508000000EF
:00000001FF
