:020000040800F2
:1000000000200020C1000008C7000008C700000849
:1000100000000000000000000000000000000000E0
:10002000000000000000000000000000C700000801
:100030000000000000000000C7000008C700000822
:10004000C7000008C7000008C7000008C700000874
:10005000C7000008C7000008C7000008C700000864
:10006000C7000008C7000008C7000008C700000854
:10007000C7000008C7000008C7000008C700000844
:10008000C7000008C7000008C7000008C700000834
:10009000C7000008C7000008C7000008C700000824
:1000A000C7000008C7000008C7000008C700000814
:1000B000C7000008C7000008C7000008C700000804
:1000C00000F092FAFEE7FEE780B582B002AF0121B0
:1000D000112000F005FA9023D8050623009307238A
:1000E0000522042100F0E4FC002000F0BDFBC04626
:1000F000BD4680BD80B500AF0121112000F0F0F9B0
:100100009023DB0501220221180000F059F9902309
:10011000DB0501220321180000F052F90121112012
:1001200000F00AFA96239B01180000F087FDC046F4
:10013000BD4680BD80B500AF0121112000F0D0F98F
:100140009023DB051A689023DB0503210A431A601C
:100150000121092000F01CFA00F0CCFDC046BD468C
:1001600080BD80B584B000AF786039600023FB604B
:1001700006E0FB680133FB607A683B68D31A7B605A
:100180007A683B689A42F4DAFB681800BD4604B00E
:1001900080BD80B582B000AF786039607A683B6816
:1001A0009A4205DA7B6808E07A683B68D31A7B607C
:1001B0007A683B689A42F7DA7B681800BD4602B05D
:1001C00080BD80B584B000AF786039600023FB60EB
:1001D00014E07B680A211800FFF7DBFF0100FB68D1
:1001E0003A68D318CAB21A707B680A211800FFF760
:1001F000B8FF03007B60FB680133FB60FB68072BE3
:10020000E7DDC046BD4604B080BD80B584B000AF18
:10021000786000F003FC0023FB600CE0FB687A6868
:10022000D3181B78FA68D2B21100180000F04FFB07
:10023000FB680133FB60FB68072BEFDDC046BD4662
:1002400004B080BD80B582B000AF0121132000F062
:1002500047F9174B01220821180000F043F8FFF777
:1002600069FFFFF731FFFFF745FF00237B60104B6D
:1002700001220821180000F05DF8642000F0BEFAA9
:100280000B4B00220821180000F054F8642000F005
:10029000B5FA00F057FD03007B60064A7B68110049
:1002A0001800FFF78EFF034B1800FFF7AEFFDEE7E5
:1002B000000800480000002080B584B000AFF8605E
:1002C000B960FB1D1A70FB68DB68FA1D1178BA680B
:1002D000520091400A001A43FB68DA60C046BD46EE
:1002E00004B080BD80B584B000AFF860B960FB1D7C
:1002F0001A70FB68002B19D0BB680F2B16D8FB684F
:100300001B68BA685200032191400A00D2431A4088
:10031000FB681A60FB681B68FA1D1178BA68520006
:1003200091400A001A43FB681A6000E0C046BD46CF
:1003300004B080BD80B584B000AFF860B9607A6069
:10034000FB68002B1AD0BB680F2B17D87B68002BDB
:1003500009D0FB685B690121BA6891400A001A4321
:10036000FB685A610BE0FB685B690121BA68914048
:100370000A00D2431A40FB685A6100E0C046BD46FD
:1003800004B080BD80B584B000AF786039607B6810
:10039000002B02D03B680F2B01D900230CE0002377
:1003A000FB607B681B6901213A6891400A00134099
:1003B00001D00123FB60FB681800BD4604B080BD7E
:1003C00080B586B000AFF860B960FB1D1A70FB689D
:1003D000002B3CD0BB680F2B39D8FB681B68BA6870
:1003E0005200032191400A00D2431A40FB681A6070
:1003F000FB681B68BA685200022191400A001A4348
:10040000FB681A60BB68072B03D8FB6820337B614D
:1004100005E0BB68083BBB60FB6824337B61BB68BD
:100420009B00BB607B691B680F21BA6891400A0082
:10043000D2431A407B691A607B691B68FA1D1178E8
:10044000BA6891400A001A437B691A6000E0C0460E
:10045000BD4606B080BD000080B582B000AF7860B8
:100460007B681A6804210A431A607B681A6838217D
:100470008A4308210A431A607B68802292001A602E
:100480007B685A6809490A40E021C9000A435A605A
:100490007B685A6804210A435A607B681A684021C5
:1004A0000A431A60C046BD4602B080BDFFF0FFFFA0
:1004B00080B582B000AF78600A00FB1C1A70C0469D
:1004C0007B689B689B07DB0FDBB2002BF8D07B6857
:1004D0000C33FA1C12781A70C046BD4602B080BDBB
:1004E00080B582B000AF0200FB1D1A70BB1D0A1C54
:1004F0001A70BB1D1B78012B0BD10E4B5A69FB1DCB
:100500001B78012199400B0019000A4B0A435A61DC
:100510000BE0084B5A69FB1D1B78012199400B0029
:10052000DB431900034B0A405A61C046BD4602B086
:1005300080BDC0460010024080B582B000AF02000E
:10054000FB1D1A70BB1D0A1C1A70BB1D1B78012BEA
:100550000BD10E4BDA69FB1D1B78012199400B0072
:1005600019000A4B0A43DA610BE0084BDA69FB1DFC
:100570001B78012199400B00DB431900034B0A4013
:10058000DA61C046BD4602B080BDC04600100240E0
:1005900080B582B000AF0200FB1D1A70BB1D0A1CA3
:1005A0001A70BB1D1B78012B0BD10E4B9A69FB1DDA
:1005B0001B78012199400B0019000A4B0A439A61EC
:1005C0000BE0084B9A69FB1D1B78012199400B0039
:1005D000DB431900034B0A409A61C046BD4602B096
:1005E00080BDC0460010024080B500AFFFF72AFE74
:1005F000C046BD4680BDC04680B582B000AF7860C1
:1006000039603B681B041A0C7B685A62C046BD46C1
:1006100002B080BD80B582B000AF786039607B6881
:100620003A689A62C046BD4602B080BD80B582B0CD
:1006300000AF78607B681A6801218A431A60C0465F
:10064000BD4602B080BD80B582B000AF78600A00C0
:10065000FB1C1A707B681A6810218A431A607B6839
:100660001B68FA1C12781201134301221A437B689B
:100670001A60C046BD4602B080BD80B582B000AFF2
:1006800078607B685B6A1800BD4602B080BD80B5AB
:1006900084B000AFF860B9607A60FB68002B2FD09F
:1006A000BB68194A93422BD87B68174A934227D8D4
:1006B000FB687A689A62FB68BA68DA620022FB68B3
:1006C0001A64FB68DA63FB6800221A62FB680F4A4F
:1006D000DA61FB681A6A802149000A431A62FB68E2
:1006E0001A6A802149010A431A62FB681A680121CB
:1006F0000A431A60FB685A6901210A435A6100E003
:10070000C046BD4604B080BDFFFF00006868000021
:1007100080B584B000AFF860B9607A60FB68002BE8
:100720003ED0BB68204A93423AD87B681E4A934227
:1007300036D8FB687A689A62FB68BA68DA62002386
:10074000FA68D363FA689363FA685363FB6800221C
:100750001A62FB68154A9A61FB686822DA61FB68D5
:100760001A6A01210A431A62FB681A6A10210A43B5
:100770001A62FB681A6A802149000A431A62FB6800
:100780005A6C802109020A435A64FB681A680121E5
:100790000A431A60FB685A6901210A435A6100E062
:1007A000C046BD4604B080BDFFFF00006868000081
:1007B00080B586B000AFF860B9607A60BB68012B85
:1007C00009D004D3022B0AD0032B0CD00FE0FB6816
:1007D00034337B610BE0FB6838337B6107E0FB68F7
:1007E0003C337B6103E0FB6840337B61C0467B693F
:1007F0007A681A60C046BD4606B080BD80B584B038
:1008000000AF786001211020FFF7C2FE1DE0154BFC
:100810001800FFF70BFF134B00211800FFF7ECFE49
:10082000104B00211800FFF7F5FE0E4B00211800B9
:10083000FFF709FF0B4B1800FFF71FFF0300FB60DA
:10084000FA68FA235B019A42F4D97B685A1E7A60EF
:10085000002BDCD100211020FFF79AFEC046BD46D8
:1008600004B080BD0040014080B582B000AF786028
:100870000F2000F093F8072000F0B0F8FF2000F000
:10088000BDF800F0CBF8012000F098F8C046BD4656
:1008900002B080BD80B582B000AF0200FB1D1A70AF
:1008A000BB1D0A1C1A70012000F068F9FB1D1B78A3
:1008B000180000F07FF9BB1D1B78180000F07AF9D2
:1008C000002000F05BF9C046BD4602B080BD80B597
:1008D00082B000AF0200FB1D1A70BB1D0A1C1A700B
:1008E000BB1D1B78072B09D8BB1D1B780133DAB25F
:1008F000FB1D1B7819001000FFF7CCFFC046BD465A
:1009000002B080BD80B586B000AF7860396000234A
:10091000FB6030E01F4B1800FFF770FFFB687A6840
:10092000D3181B78203B1C4AD35C00211800FFF72A
:10093000CEFFFB68013B7B6101233B6112E07B69D9
:100940007A68D3181B78203B134AD35C3A69D2B239
:1009500011001800FFF7BBFF7B69013B7B613B691E
:1009600001333B617B69002B02DB3B69072BE6DD32
:10097000FB680133FB60FB683A689A42CAD8FA23E5
:100980009B001800FFF73AFF00F06DF8C046BD4627
:1009900006B080BDEE020000840D000880B582B074
:1009A00000AF0200FB1D1A70FB1D1B7819000A2006
:1009B000FFF770FFC046BD4602B080BD80B582B073
:1009C00000AF0200FB1D1A70FB1D1B7819000C20E4
:1009D000FFF760FFC046BD4602B080BD80B582B063
:1009E00000AF0200FB1D1A70FB1D1B7819000B20C5
:1009F000FFF750FFC046BD4602B080BD80B582B053
:100A000000AF0200FB1D1A70FB1D1B7819000920A6
:100A1000FFF740FFC046BD4602B080BD80B500AFC5
:100A200000210F20FFF753FF01210F20FFF74FFF99
:100A300002210F20FFF74BFF03210F20FFF747FF95
:100A400004210F20FFF743FF05210F20FFF73FFF91
:100A500006210F20FFF73BFF07210F20FFF737FF8D
:100A6000C046BD4680BD80B500AF00210020FFF725
:100A70002EFF01210020FFF72AFF02210020FFF7AF
:100A800026FF03210020FFF722FF04210020FFF7AB
:100A90001EFF05210020FFF71AFF06210020FFF7A7
:100AA00016FF07210020FFF712FFC046BD4680BD9C
:100AB00090B583B000AF78600C0010001900FB1CEB
:100AC000221C1A70BB1C021C1A707B1C0A1C1A7098
:100AD0007B68002B44D0244B7A681A60234BFA1CA5
:100AE00012781A70224BBA1C12781A70214B7A1C99
:100AF00012781A70204B18243A1912781A701A4B6F
:100B00001868FB1C1B7801221900FFF7EBFB164B42
:100B10001868FB1C1B7801221900FFF70BFC124B15
:100B20001868BB1C1B7801221900FFF7DBFB0E4B7A
:100B30001868BB1C1B7800221900FFF7FBFB0A4B4F
:100B400018687B1C1B7801221900FFF7CBFB064BB2
:100B50001B683A19117800221800FFF7C3FB00E068
:100B6000C046BD4603B090BD0C0000201000002020
:100B70000A000020080000200900002080B582B093
:100B800000AF0200FB1D1A70084B1868084B1B7859
:100B9000DBB21900FB1D1B785A425341DBB21A002D
:100BA000FFF7C8FBC046BD4602B080BD0C00002068
:100BB0001000002090B585B000AF0200FB1D1A7038
:100BC0000023FB600723FB602BE0194B1868194BCF
:100BD0001B78DBB21C00FB1D1B780121FA689140D9
:100BE0000A0013401A002100FFF7A4FB0120FFF7C1
:100BF00005FE0F4B1868104B1B78DBB20122190061
:100C0000FFF798FB0120FFF7F9FD094B18680A4B25
:100C10001B78DBB200221900FFF78CFBFB68013B5D
:100C2000FB60FB68002BD0DAC046BD4605B090BD26
:100C30000C000020080000200A00002080B582B0CF
:100C400000AF7860084B094ADA60074A1368082148
:100C50000B431360044A136801210B431360C04621
:100C6000BD4602B080BDC0460044004041030000C4
:100C700080B582B000AF0200FB1D1A700C4AFB1D4C
:100C80001B78DB05DB0D99B2936AC905C90D5B0AB8
:100C90005B020B439362C046054BDB695B06DB0FCF
:100CA000DBB2002BF8D1C046BD4602B080BDC046C5
:100CB0000044004080B582B000AF78607B68002BB4
:100CC00010D00B4BDB699B06DB0FDBB2002B09D08E
:100CD000074B5B6ADB05DB0D9BB2DAB27B681A70EF
:100CE000012300E000231800BD4602B080BDC046CD
:100CF0000044004080B500AF114B1A69104B8021B1
:100D000009060A431A610E4B1B68DB07DB0FDBB2D7
:100D1000002B04D00A4A136801210B431360084AD0
:100D2000936801210B439360C046054B1B68DB07AA
:100D3000DB0FDBB2002BF8D0C046BD4680BDC046FD
:100D40000024014080B582B000AF00237B600C4BD3
:100D500001229A620A4A936804210B439360C046B9
:100D6000074B1B685B07DB0FDBB2002BF8D0044B93
:100D70001B6C9BB27B607B681800BD4602B080BDD7
:040D8000002401400A
:100D840000010101010101014E780101010100018D
:100D94007E306D79335B5F707F7B01010109010156
:100DA40001771F4E3D4F475E37303C010E01157EE3
:100DB4006701055B073E01010127014E0178010827
:100DC40001771F0D3D4F475E17103C010E01157E44
:0B0DD4006701055B071C0101012701FE
:0400000508000000EF
:00000001FF
